S01400005245434549564552434F44452E73726563A0
S11300000C9438000C9442000C9442000C9442006E
S11300100C9442000C9442000C9442000C94420054
S11300200C9442000C9442000C9442000C94420044
S11300300C9442000C9442000C9442000C94420034
S11300400C9442000C9442000C9442000C94420024
S11300500C9442000C9442000C9442000C94420014
S11300600C9442000C9442000C9442000C94420004
S113007011241FBECFEFD4E0DEBFCDBF0E944400E9
S11300800C94DC000C940000CF93DF93CDB7DEB763
S113009068970FB6F894DEBF0FBECDBF81E087BB73
S11300A018BAFE01319684E1DF011D928A95E9F7C1
S11300B097E3998328E32A8339E33B838FE28C8394
S11300C084E38D8385E38E8386E38F834AE24887C6
S11300D041E3498742E34A8743E34B874DE24C8738
S11300E041E44D8740E34E874DE34F874BE2488B15
S11300F03D8B2E8B9F8B888F81B38E7F81BB81B389
S1130100826081BB8FEF8ABB84BB10BC85E089B958
S113011080E18AB98EE080BD20E030E086B3817052
S113012015BA5F9BFECF9CB195BB903191F0E1E095
S1130130F0E0EC0FFD1FE90FF11D4081E5E1F0E077
S1130140EC0FFD1FE20FF31F9081491302C02F5FD4
S11301503F4F813061F48FEF8BBB8FE493EC0197B9
S1130160F1F700C0000080EF8CB920E030E02430CB
S11301703105B1F481E085BB9FEDA3E9B4E0915072
S1130180A040B040E1F700C0000015BA4FE78AE193
S113019096E0415080409040E1F700C00000BECF9F
S11301A086EC8CB9AFE3BDE043E0A150B0404040E1
S10F01B0E1F700C00000B2CFF894FFCFCC
S9030000FC
