S010000052656365697665722E73726563DF
S11300000C9438000C9442000C9442000C9442006E
S11300100C9442000C9442000C9442000C94420054
S11300200C9442000C9442000C9442000C94420044
S11300300C9442000C9442000C9442000C94420034
S11300400C9442000C9442000C9442000C94420024
S11300500C9442000C9442000C9442000C94420014
S11300600C9442000C9442000C9442000C94420004
S113007011241FBECFEFD4E0DEBFCDBF0E945F00CE
S11300800C949D000C94000015BA5F9BFECF8CB1BC
S11300902FE33DE093E0215030409040E1F700C071
S11300A0000008955D9BFECF8CB92FE38DE093E0B3
S11300B0215080409040E1F700C00000089510BC3A
S11300C085E089B98EE880BD81B38E7F81BB81B321
S11300D0826081BB88E18AB98FEF8ABB86EC8BBBD7
S11300E017BA86EC90E00E945200C6ECD0E00E9461
S11300F0440096B315BA90FD1AC08533D1F481E05B
S113010085BB2FED83E994E0215080409040E1F7D6
S113011000C0000015BA2FE78AE196E02150804024
S11301209040E1F700C00000C0ECD0E002C0C6EC93
S1110130D0E0CE010E945200DACFF894FFCF47
S9030000FC
