:100000000C9438000C9442000C9442000C94420072
:100010000C9442000C9442000C9442000C94420058
:100020000C9442000C9442000C9442000C94420048
:100030000C9442000C9442000C9442000C94420038
:100040000C9442000C9442000C9442000C94420028
:100050000C9442000C9442000C9442000C94420018
:100060000C9442000C9442000C9442000C94420008
:1000700011241FBECFEFD4E0DEBFCDBF0E946C00C5
:100080000C94CB000C94000018BA83B3813029F48F
:1000900080B382958F7090E0089580E190E008959C
:1000A0005D9BFECF8CB92FE38DE093E02150804023
:1000B0009040E1F700C00000089515BA5F9BFECFA5
:1000C0008CB190E02FE33DE043E0215030404040D0
:1000D000E1F700C000000895CF93DF93CDB7DEB7FE
:1000E00064970FB6F894DEBF0FBECDBFFE01319608
:1000F00084E1DF011D928A95E9F781E3898382E338
:100100008A8383E38B8381E48C8384E38D8385E31B
:100110008E8386E38F8382E4888787E3898788E3F9
:100120008A8789E38B8783E48C878AE28D8780E3E3
:100130008E8783E28F878FE081BB14BA82E087BB12
:10014000198910BC85E089B98EE880BD81B38260D1
:1001500081BB81B38E7F81BB82B3816082BB88E12A
:100160008AB98FEF8ABB86EC8BBB812F0E9450002F
:100170000E945D008BBB0E9444008031910539F0E4
:10018000E1E0F0E0EC0FFD1FE80FF91F1081812F77
:0A0190000E945000EDCFF894FFCF5D
:00000001FF
